:100000000C942A000C9447000C9447000C94470071
:100010000C9447000C9447000C9447000C94470044
:100020000C9447000C9447000C94B1080C944700C2
:100030000C9447000C9447000C9447000C94470024
:100040000C9447000C9447000C9447000C94470014
:100050000C94470011241FBECFE5D8E0DEBFCDBF12
:1000600010E0A0E6B0E0EAE5FFE202C005900D92E4
:10007000A23CB107D9F710E0A2ECB0E001C01D929C
:10008000A33DB107E1F70E94DF160C94AB170C9467
:100090000000EF92FF920F931F937B018C0120E0F1
:1000A00030E040E05FE40E94490388238CF0C801FF
:1000B000B70120E030E040E05FE40E94C1010E940F
:1000C000A9039B01AC01205030404040504806C07D
:1000D000C801B7010E94A9039B01AC01B901CA0183
:1000E0001F910F91FF90EF900895A0E0B0E0EBE733
:1000F000F0E00C947417DC012B01FA019C91923012
:1001000008F439C1EB018881823008F433C194309E
:1001100069F4843009F02FC111969C91119789815F
:10012000981709F428C1A0E6B0E025C1843009F48D
:1001300021C18230A9F4923009F01DC19A01AD01AC
:1001400088E0EA010990AE01E90109929E0181501F
:10015000C1F7E201898111969C918923818308C1AD
:10016000923009F407C112962D903C901397EB0141
:100170008A819B811496AD90BD90CD90DC901797AD
:10018000EC80FD800E811F819101281B390BB90184
:1001900037FF04C066277727621B730B6032710537
:1001A0000CF061C0121613066CF537014801062EDB
:1001B00004C096948794779467940A94D2F721E0C8
:1001C00030E040E050E004C0220F331F441F551FB1
:1001D0006A95D2F721503040404050402E213F21B7
:1001E00040235123211531054105510521F021E01E
:1001F00030E040E050E079018A01E628F72808293C
:1002000019293CC0232BD1F1260E371E350146019A
:10021000062E04C096948794779467940A94D2F734
:1002200021E030E040E050E004C0220F331F441FC3
:10023000551F6A95D2F721503040404050402A2146
:100240003B214C215D21211531054105510521F04E
:1002500021E030E040E050E059016A01A628B728CB
:10026000C828D9280BC0821593052CF01C01AA249C
:10027000BB24650103C0EE24FF24870111969C91E5
:10028000D20111968C91981709F445C0992339F041
:10029000A80197012A193B094C095D0906C0A6016E
:1002A00095012E193F09400B510B57FD08C01182D3
:1002B0003382228224833583468357831DC081E0A5
:1002C00081833382228288279927DC01821B930B4A
:1002D000A40BB50B84839583A683B7830DC0220F2F
:1002E000331F441F551F24833583468357838281E0
:1002F000938101979383828324813581468157813D
:10030000DA01C9010197A109B1098F5F9F4FAF4F72
:10031000BF4328F30BC0918333822282EA0CFB1C7B
:100320000C1D1D1DE482F5820683178383E0808304
:10033000248135814681578157FF1AC0C901AA27F8
:1003400097FDA095BA2F81709070A070B0705695EF
:10035000479537952795822B932BA42BB52B848318
:100360009583A683B7838281938101969383828349
:10037000DF0101C0D201CD01CDB7DEB7E2E10C94BF
:100380009017A0E2B0E0E7ECF1E00C9480176983ED
:100390007A838B839C832D833E834F835887E9E048
:1003A000EE2EF12CEC0EFD1ECE010196B7010E943F
:1003B000D2048E010F5E1F4FCE010596B8010E9438
:1003C000D2048A8991E089278A8BC701B801AE01DE
:1003D000475E5F4F0E9475000E94FD03A096E6E015
:1003E0000C949C17A0E2B0E0E8EFF1E00C948017C9
:1003F00069837A838B839C832D833E834F835887C5
:10040000F9E0EF2EF12CEC0EFD1ECE010196B701A6
:100410000E94D2048E010F5E1F4FCE010596B801D7
:100420000E94D204C701B801AE01475E5F4F0E942F
:1004300075000E94FD03A096E6E00C949C17A0E2D4
:10044000B0E0E5E2F2E00C94741769837A838B8361
:100450009C832D833E834F835887CE010196BE0136
:10046000675F7F4F0E94D204CE010596BE016F5E8A
:100470007F4F0E94D2049985923088F0898982301A
:10048000C8F0943019F4823051F404C0843029F457
:10049000923081F480E690E0C6C0923049F420E0CA
:1004A0009A858A89981321E02A87CE010996BBC0D4
:1004B000823049F420E09A858A89981321E02A8BBA
:1004C000CE014196B0C02D843E844F8458886D88FB
:1004D0007E888F88988CEE24FF248701AA24BB2471
:1004E000650140E050E060E070E0E0E0F0E0C10174
:1004F00081709070892BE9F0E60CF71C081D191D1E
:100500009A01AB012A0D3B1D4C1D5D1D80E090E062
:10051000A0E0B0E0E614F7040805190520F481E036
:1005200090E0A0E0B0E0BA01A901480F591F6A1F8E
:100530007B1FAA0CBB1CCC1CDD1C97FE08C081E0F5
:1005400090E0A0E0B0E0A82AB92ACA2ADB2A3196B6
:10055000E032F10549F0660C771C881C991C569412
:10056000479437942794C3CFFA85EA892B893C892D
:100570008B859C85280F391F2E5F3F4F17C0CA01FE
:1005800081709070892B61F016950795F794E79428
:1005900080E090E0A0E0B0E8E82AF92A0A2B1B2BC3
:1005A00076956795579547952F5F3F4F77FDE7CF36
:1005B0000CC0440F551F661F771F17FD4160EE0CDE
:1005C000FF1C001F111F21503040403090E05907A0
:1005D00090E0690790E4790760F32B8F3C8FDB0193
:1005E000CA018F779070A070B07080349105A1051A
:1005F000B10561F447FD0AC0E114F10401051105DC
:1006000029F0405C5F4F6F4F7F4F40781A8EFE1786
:1006100011F081E08A8F4D8F5E8F6F8F78A383E01A
:10062000898FCE0149960E94FD03A096E2E10C94C9
:100630009017A8E1B0E0EFE1F3E00C948017698334
:100640007A838B839C832D833E834F83588789E0F5
:10065000E82EF12CEC0EFD1ECE010196B7010E9492
:10066000D2048E010F5E1F4FCE010596B8010E9485
:10067000D2048985823040F08989823028F0C70110
:10068000B8010E944A0501C08FEF6896E6E00C941D
:100690009C17A8E1B0E0EFE4F3E00C9480176983C5
:1006A0007A838B839C832D833E834F83588789E095
:1006B000E82EF12CEC0EFD1ECE010196B7010E9432
:1006C000D2048E010F5E1F4FCE010596B8010E9425
:1006D000D2048985823040F08989823028F0C701B0
:1006E000B8010E944A0501C08FEF6896E6E00C94BD
:1006F0009C17A8E1B0E0EFE7F3E00C948017698362
:100700007A838B839C832D833E834F83588789E034
:10071000E82EF12CEC0EFD1ECE010196B7010E94D1
:10072000D2048E010F5E1F4FCE010596B8010E94C4
:10073000D2048985823040F08989823028F0C7014F
:10074000B8010E944A0501C081E06896E6E00C9479
:100750009C17ACE0B0E0EFEAF3E00C9484176983F7
:100760007A838B839C83CE010196BE016B5F7F4FA2
:100770000E94D2048D81823061F1823050F1843048
:1007800021F48E81882351F12EC02F81388537FDC9
:1007900020C06E812F3131051CF06623F9F023C093
:1007A0008EE190E0821B930B29853A854B855C8511
:1007B00004C056954795379527958A95D2F76623B5
:1007C000B1F050954095309521953F4F4F4F5F4F79
:1007D0000EC020E030E040E050E009C02FEF3FEFD6
:1007E0004FEF5FE704C020E030E040E050E8B9019F
:1007F000CA012C96E2E00C94A017DF92EF92FF92D0
:100800000F931F93FC01E480F58006811781D1804E
:100810008081823048F480E090E0A0E1B0E0E82AF6
:10082000F92A0A2B1B2BA5C0843009F49FC0823003
:1008300021F4EE24FF24870105C0E114F104010531
:10084000110519F4E0E0F0E096C0628173819FEF3A
:10085000623879070CF05BC022E83FEF261B370BAC
:100860002A3131052CF020E030E040E050E02AC091
:10087000B801A701022E04C0769567955795479554
:100880000A94D2F781E090E0A0E0B0E004C0880FC5
:10089000991FAA1FBB1F2A95D2F70197A109B10979
:1008A0008E219F21A023B1230097A105B10521F03E
:1008B00081E090E0A0E0B0E09A01AB01282B392B59
:1008C0004A2B5B2BDA01C9018F779070A070B07052
:1008D00080349105A105B10539F427FF09C0205CDA
:1008E0003F4F4F4F5F4F04C0215C3F4F4F4F5F4F13
:1008F000E0E0F0E02030A0E03A07A0E04A07A0E402
:100900005A0710F0E1E0F0E079018A0127C0603871
:10091000710564F5FB01E158FF4FD801C7018F77DE
:100920009070A070B07080349105A105B10539F4C4
:10093000E7FE0DC080E490E0A0E0B0E004C08FE3EB
:1009400090E0A0E0B0E0E80EF91E0A1F1B1F17FFA1
:1009500005C016950795F794E794319687E01695AC
:100960000795F794E7948A95D1F705C0EE24FF2404
:100970008701EFEFF0E06E2F679566276795902F60
:100980009F77D794DD24D7948E2F8695492F462BB9
:10099000582F5D29B701CA011F910F91FF90EF9069
:1009A000DF900895FC01DB01408151812281622F9B
:1009B0006F7770E0221F2227221F9381892F880FD3
:1009C000822B282F30E0991F9927991F11969C930D
:1009D000119721153105A9F54115510561057105DD
:1009E00011F482E037C082E89FEF13969C938E93B8
:1009F00012979A01AB0167E0220F331F441F551F66
:100A00006A95D1F783E08C930DC0220F331F441FEA
:100A1000551F12968D919C911397019713969C9355
:100A20008E931297203080E0380780E0480780E4FA
:100A3000580758F314962D933D934D935C93179755
:100A400008952F3F310579F4411551056105710570
:100A500019F484E08C93089564FF03C081E08C93C3
:100A600012C01C9210C02F57304013963C932E9307
:100A7000129783E08C9387E0440F551F661F771F02
:100A80008A95D1F7706414964D935D936D937C9322
:100A9000179708951F93DC01FB019C91923008F495
:100AA00047C08081823008F443C0943051F41196DD
:100AB0001C91843099F58181682F70E0611B710968
:100AC0003FC0843021F0923031F48230B9F181811D
:100AD000882389F12DC011961C9111978230F1F075
:100AE00081811817D9F412962D913C911397828128
:100AF00093818217930794F028173907BCF0149656
:100B00008D919D910D90BC91A02D248135814681C0
:100B10005781281739074A075B0718F4112341F05A
:100B20000AC082179307A407B50740F4112319F0F0
:100B300061E070E005C06FEF7FEF02C060E070E041
:100B4000CB011F910895DF93CF9300D00F92CDB7C3
:100B5000DEB789838981282F30E03B832A838A810D
:100B60009B81009731F02A813B812130310549F08A
:100B70000FC0A6E2B0E0E6E2F0E0808180688C93EE
:100B800007C0A6E2B0E0E6E2F0E080818F778C93C8
:100B90000F900F900F90CF91DF910895DF93CF9337
:100BA00000D000D0CDB7DEB789836A83A7E2B0E07A
:100BB000E7E2F0E08081807F8C93A7E2B0E0E7E29B
:100BC000F0E090818A81892B8C938981282F30E0F5
:100BD0003C832B838B819C81009731F02B813C815E
:100BE0002130310549F00FC0A6E2B0E0E6E2F0E0C6
:100BF000808180648C9307C0A6E2B0E0E6E2F0E07A
:100C000080818F7B8C930F900F900F900F90CF91DE
:100C1000DF910895DF93CF9300D00F92CDB7DEB769
:100C200089838981282F30E03B832A838A819B81B5
:100C3000009731F02A813B812130310549F00FC006
:100C4000A6E2B0E0E6E2F0E0808188608C9307C025
:100C5000A6E2B0E0E6E2F0E08081877F8C930F901F
:100C60000F900F90CF91DF910895DF93CF930F9264
:100C7000CDB7DEB78983A6E2B0E0E6E2F0E080819E
:100C8000887F8C93A6E2B0E0E6E2F0E09081898173
:100C9000892B8C930F90CF91DF910895DF93CF93A1
:100CA0000F92CDB7DEB71982E6E2F0E0808182953F
:100CB0008F70882F90E081709070882311F081E010
:100CC000898389810F90CF91DF910895DF93CF932E
:100CD000CDB7DEB7A6E2B0E0E6E2F0E080818F7E3D
:100CE0008C93CF91DF910895DF93CF93CDB7DEB78B
:100CF000A7E2B0E0E7E2F0E0808180648C93CF91DE
:100D0000DF910895DF93CF9300D0CDB7DEB71A827D
:100D10001982E4E2F0E08081882F90E09A83898351
:100D2000E5E2F0E08081882F90E0982F88279C01F1
:100D300089819A81822B932B9A83898389819A81D5
:100D40000F900F90CF91DF910895DF93CF930F9283
:100D5000CDB7DEB789838981823008F04BC08981A5
:100D6000282F30E0C901880F991F820F931F880F29
:100D7000991FFC01EC53FF4F808191810097D1F1C5
:100D80008981282F30E0C901880F991F820F931F96
:100D9000880F991FFC01EC53FF4F1182108289814B
:100DA000282F30E0C901880F991F820F931F880FE9
:100DB000991FFC01E753FF4F10828981282F30E0F3
:100DC000C901880F991F820F931F880F991FFC017B
:100DD000E953FF4F10828981282F30E0C901880F25
:100DE000991F820F931F0196880F991FFC01EC53E6
:100DF000FF4F10820F90CF91DF910895DF93CF9333
:100E00000F92CDB7DEB7AFE5B0E0EFE5F0E080815F
:100E10008F778C93198206C089810E94A5068981EB
:100E20008F5F898389818230B8F30E94B81582E090
:100E30000E94511580E00E94381581E067E20E940F
:100E40003B1682E00E94C7150F90CF91DF91089565
:100E5000DF93CF9300D000D0CDB7DEB79A838983DC
:100E60006B834C838091C300823008F05AC080911C
:100E7000C300282F30E0C901880F991F820F931FEC
:100E8000880F991FFC01EC53FF4F89819A81918350
:100E900080838091C300282F30E08B81482F4F5FE3
:100EA000C901880F991F820F931F880F991FFC019A
:100EB000E953FF4F40838091C300282F30E0C901E0
:100EC000880F991F820F931F0196880F991FFC01AD
:100ED000EC53FF4F8C8180838091C300282F30E03A
:100EE000C901880F991F820F931F880F991FFC015A
:100EF000E753FF4F10828091C300282F30E04091CC
:100F0000C300C901880F991F820F931F880F991F73
:100F1000FC01E853FF4F40838091C3008F5F8093B3
:100F2000C3000F900F900F900F90CF91DF91089515
:100F3000DF93CF930F92CDB7DEB78091C20081309F
:100F400009F05EC00E940408198254C08981282FCC
:100F500030E0C901880F991F820F931F880F991FD6
:100F6000FC01E753FF4F8081882309F440C0898149
:100F7000282F30E0C901880F991F820F931F880F17
:100F8000991FFC01EC53FF4F0190F081E02D099572
:100F90008981282F30E0C901880F991F820F931F84
:100FA000880F991FFC01E753FF4F8081482F415064
:100FB000C901880F991F820F931F880F991FFC0189
:100FC000E753FF4F40838981282F30E0C901880F04
:100FD000991F820F931F0196880F991FFC01EC53F4
:100FE000FF4F8081882319F489810E94A506898199
:100FF0008F5F89838981823008F4A8CF1092C20064
:101000000F90CF91DF910895DF93CF930F92CDB7DB
:10101000DEB7198278C08981282F30E0C901880F96
:10102000991F820F931F880F991FFC01EC53FF4FEC
:1010300080819181009709F463C08981282F30E075
:10104000C901880F991F820F931F880F991FFC01F8
:10105000E953FF4F8081482F4150C901880F991FE4
:10106000820F931F880F991FFC01E953FF4F4083A4
:101070008981282F30E0C901880F991F820F931FA3
:10108000880F991FFC01E953FF4F80818823C1F528
:101090008981282F30E0C901880F991F820F931F83
:1010A000880F991FFC01E753FF4F8081482F4F5F46
:1010B000C901880F991F820F931F880F991FFC0188
:1010C000E753FF4F40838981482F50E08981282FC3
:1010D00030E0C901880F991F820F931F0196880F76
:1010E000991FFC01EC53FF4F2081CA01880F991F03
:1010F000840F951F880F991FFC01E953FF4F208330
:1011000089818F5F89838981823008F484CF0F9031
:10111000CF91DF910895DF93CF93CDB7DEB785E010
:101120000E94381581E067E20E943B16AFE5B0E00F
:10113000EFE5F0E0808180688C93CF91DF91089596
:10114000DF93CF93CDB7DEB7AFE5B0E0EFE5F0E0EA
:1011500080818F778C9380E00E943815CF91DF914A
:1011600008951F920F920FB60F9211248F93DF9361
:10117000CF93CDB7DEB781E08093C200CF91DF91EE
:101180008F910F900FBE0F901F901895DF93CF9304
:1011900000D000D0CDB7DEB71A82A2C08A81869572
:1011A0008695869589838A81882F90E0FC01E8598D
:1011B000FF4F8081282F30E03C832B838B819C81E3
:1011C0008130910559F02B813C812230310509F4A1
:1011D00059C08B819C81009749F17FC08981882FFC
:1011E00090E0880F991FFC01E657FF4FA081B18165
:1011F0008981882F90E0880F991FFC01E657FF4FE7
:101200000190F081E02D8081482F8A81882F90E025
:101210009C012770307081E090E0022E02C0880FA0
:10122000991F0A94E2F7842B8C9357C08981882FE9
:1012300090E0880F991FFC01E657FF4FA081B18114
:101240008981882F90E0880F991FFC01E657FF4F96
:101250000190F081E02D8081482F8A81882F90E0D5
:101260009C012770307081E090E002C0880F991FC8
:101270002A95E2F7809584238C938A8161E00E940D
:101280007B092BC08981882F90E0880F991FFC0172
:10129000E657FF4FA081B1818981882F90E0880FA8
:1012A000991FFC01E657FF4F0190F081E02D8081EE
:1012B000482F8A81882F90E09C012770307081E050
:1012C00090E002C0880F991F2A95E2F78095842349
:1012D0008C938A8160E00E947B098A818F5F8A8378
:1012E0008A81803208F45ACF0F900F900F900F90A0
:1012F000CF91DF910895DF93CF9300D000D00F926C
:10130000CDB7DEB78A836B838A818695869586956D
:1013100089838B81282F30E03D832C838C819D81B4
:10132000009771F12C813D812130310509F050C0C9
:101330008981882F90E0880F991FFC01EE56FF4F9E
:10134000A081B1818981882F90E0880F991FFC01CD
:10135000EE56FF4F0190F081E02D8081482F8A8169
:10136000882F90E09C012770307081E090E0022E81
:1013700002C0880F991F0A94E2F7842B8C9328C02F
:101380008981882F90E0880F991FFC01EE56FF4F4E
:10139000A081B1818981882F90E0880F991FFC017D
:1013A000EE56FF4F0190F081E02D8081482F8A8119
:1013B000882F90E09C012770307081E090E0022E31
:1013C00002C0880F991F0A94E2F7809584238C93BA
:1013D0000F900F900F900F900F90CF91DF91089585
:1013E000DF93CF9300D00F92CDB7DEB78B838B8185
:1013F0008695869586958A8319828A81882F90E0C2
:10140000880F991FFC01E656FF4F0190F081E02DF7
:101410008081282F30E08B81882F90E0877090703A
:10142000A90102C0559547958A95E2F7CA018170D6
:101430009070882311F081E0898389810F900F904B
:101440000F90CF91DF910895DF93CF9300D0CDB768
:10145000DEB789836A838981882F90E0880F991F7E
:10146000FC01EE55FF4F0190F081E02D8A818083D1
:101470000F900F90CF91DF910895DF93CF930F924C
:10148000CDB7DEB789838981882F90E0880F991FB7
:10149000FC01E655FF4F0190F081E02D80810F9017
:1014A000CF91DF910895DF93CF9300D00F92CDB706
:1014B000DEB789838981282F30E03B832A838A81A4
:1014C0009B818130910589F02A813B812230310551
:1014D000A1F08A819B810097B9F4ABE5B0E0EBE520
:1014E000F0E0808180648C930FC0ABE5B0E0EBE569
:1014F000F0E0808180688C9307C0ABE5B0E0EBE55D
:10150000F0E0808180628C930F900F900F90CF91CC
:10151000DF910895DF93CF9300D00F92CDB7DEB760
:1015200089838981282F30E03B832A838A819B81AC
:101530008130910589F02A813B8122303105A1F06B
:101540008A819B810097B9F4ABE5B0E0EBE5F0E070
:1015500080818F7B8C930FC0ABE5B0E0EBE5F0E0D2
:1015600080818F778C9307C0ABE5B0E0EBE5F0E0CE
:1015700080818F7D8C930F900F900F90CF91DF9192
:101580000895DF93CF93CDB7DEB72A970FB6F894BF
:10159000DEBF0FBECDBF89836A838981282F30E0EB
:1015A0003A87298789859A858130910509F466C033
:1015B00029853A852230310509F4BBC089859A8591
:1015C000009709F0DDC08A81282F30E038872F830B
:1015D0008F8198858130910521F12F8138852230C6
:1015E00031052CF48F819885009761F0C9C02F8157
:1015F00038852230310521F18F819885833091051E
:1016000071F1BEC0A5E5B0E0E5E5F0E080818E7F38
:101610008C93A5E5B0E0E5E5F0E080818D7F8C93CB
:10162000AFC0A5E5B0E0E5E5F0E0808181608C9396
:10163000A5E5B0E0E5E5F0E080818D7F8C93A0C06A
:10164000A5E5B0E0E5E5F0E080818E7F8C93A5E52F
:10165000B0E0E5E5F0E0808182608C9391C0A5E583
:10166000B0E0E5E5F0E0808181608C93A5E5B0E035
:10167000E5E5F0E0808182608C9382C08A81282F2A
:1016800030E03E832D838D819E818130910521F153
:101690002D813E81223031052CF48D819E81009771
:1016A00061F06EC02D813E812230310521F18D81A6
:1016B0009E818330910571F163C0A5E5B0E0E5E559
:1016C000F0E080818B7F8C93A5E5B0E0E5E5F0E06C
:1016D0008081877F8C9354C0A5E5B0E0E5E5F0E01C
:1016E000808184608C93A5E5B0E0E5E5F0E0808141
:1016F000877F8C9345C0A5E5B0E0E5E5F0E080810B
:101700008B7F8C93A5E5B0E0E5E5F0E08081886013
:101710008C9336C0A5E5B0E0E5E5F0E0808184601B
:101720008C93A5E5B0E0E5E5F0E0808188608C93DE
:1017300027C08A81282F30E03C832B838B819C81BA
:101740008230910531F02B813C812330310549F005
:1017500010C0A4E5B0E0E4E5F0E080818F7B8C93DD
:101760000FC0A4E5B0E0E4E5F0E0808180648C93F4
:1017700007C0A4E5B0E0E4E5F0E080818F7B8C93C6
:101780002A960FB6F894DEBF0FBECDBFCF91DF9182
:101790000895DF93CF9300D000D00F92CDB7DEB77E
:1017A0001A821B821C821D8281E08B8382E08C83E3
:1017B00083E08D8319820FC08981282F30E0CE010C
:1017C0000296FC01E20FF31F808161E00E947B0919
:1017D00089818F5F89838981843070F30F900F90A6
:1017E0000F900F900F90CF91DF910895DF93CF93DB
:1017F000CDB7DEB7A1970FB6F894DEBF0FBECDBF51
:1018000086E189831C821D821E821F8281E08D8376
:1018100082E08E83188619861A861B8684E0888764
:1018200085E0898786E08A87CE010C969E8F8D8F12
:10183000E2EBF0E0F8A3EF8FF0E1F9A3EF8DF8A170
:1018400000808F8D98A1019698A38F8FED8DFE8DCE
:1018500000828D8D9E8D01969E8F8D8F99A19150C6
:1018600099A3E9A1EE2351F783E08F8387E08B876B
:101870001B8261C08B81282F30E0CE010496FC01D1
:10188000E20FF31F808160E00E947B091A8240C052
:101890008A81282F30E0CE010896FC01E20FF31F69
:1018A00080810E94F009882381F58A81282F30E009
:1018B0008B81482F50E0220F331F220F331FCE01A0
:1018C0000196820F931F840F951FFC013B96808128
:1018D00089838A81282F30E0CE010896FC01E20F2F
:1018E000F31F80810E94F009882399F38B81282FB0
:1018F00030E0CE010496FC01E20FF31F808161E02D
:101900000E947B09F981FC8F1CC08A818F5F8A83CA
:101910008A81843008F4BCCF8B81282F30E0CE013F
:101920000496FC01E20FF31F808161E00E947B09B5
:101930008B818F5F8B838B81843008F49BCF89816F
:101940008C8F8C8DA1960FB6F894DEBF0FBECDBFE5
:10195000CF91DF910895DF93CF93CDB7DEB7E897AE
:101960000FB6F894DEBF0FBECDBF8CE161E00E94E0
:101970007B098DE160E00E947B098EE160E00E94BE
:101980007B0988E160E00E947B0989E160E00E94B8
:101990007B098AE160E00E947B098BE160E00E94A4
:1019A0007B0980E090E0A0EFB1E48DAB9EABAFABE4
:1019B000B8AF6DA97EA98FA998AD20E030E04AE7C5
:1019C00055E40E941F02DC01CB0189AB9AABABABA3
:1019D000BCAB69A97AA98BA99CA920E030E040E8BA
:1019E0005FE30E94790388232CF481E090E098ABB8
:1019F0008FA73FC069A97AA98BA99CA920E03FEFD6
:101A00004FE757E40E94190318164CF56DA97EA9FB
:101A10008FA998AD20E030E040E251E40E941F021F
:101A2000DC01CB01BC01CD010E944900DC01CB01EE
:101A300098AB8FA70FC080E991E09EA78DA78DA5D9
:101A40009EA50197F1F79EA78DA78FA598A901974D
:101A500098AB8FA78FA598A9009769F714C069A9BB
:101A60007AA98BA99CA90E944900DC01CB0198AB03
:101A70008FA78FA598A99CA78BA78BA59CA501973D
:101A8000F1F79CA78BA780E20E94BA0E80E20E9429
:101A9000BA0E80E80E94BA0E80E090E0A0E2B1E4C5
:101AA0008FA398A7A9A7BAA76FA178A589A59AA57A
:101AB00020E030E04AE755E40E941F02DC01CB0140
:101AC0008BA39CA3ADA3BEA36BA17CA18DA19EA162
:101AD00020E030E040E85FE30E94790388232CF4A3
:101AE00081E090E09AA389A33FC06BA17CA18DA166
:101AF0009EA120E03FEF4FE757E40E94190318161C
:101B00004CF56FA178A589A59AA520E030E040E2C8
:101B100051E40E941F02DC01CB01BC01CD010E94F7
:101B20004900DC01CB019AA389A30FC080E991E0B1
:101B300098A38F8F8F8D98A10197F1F798A38F8F1E
:101B400089A19AA101979AA389A389A19AA1009733
:101B500069F714C06BA17CA18DA19EA10E944900D0
:101B6000DC01CB019AA389A389A19AA19E8F8D8FB5
:101B70008D8D9E8D0197F1F79E8F8D8F80E00E9455
:101B8000BA0E80EC0E94BA0E80E090E0A0E2B1E4D0
:101B9000898F9A8FAB8FBC8F698D7A8D8B8D9C8D41
:101BA00020E030E04AE755E40E941F02DC01CB014F
:101BB0008D8B9E8BAF8BB88F6D897E898F89988D29
:101BC00020E030E040E85FE30E94790388232CF4B2
:101BD00081E090E09C8B8B8B3FC06D897E898F89E3
:101BE000988D20E03FEF4FE757E40E941903181645
:101BF0004CF5698D7A8D8B8D9C8D20E030E040E234
:101C000051E40E941F02DC01CB01BC01CD010E9406
:101C10004900DC01CB019C8B8B8B0FC080E991E0EC
:101C20009A8B898B89899A890197F1F79A8B898B8D
:101C30008B899C8901979C8B8B8B8B899C890097C6
:101C400069F714C06D897E898F89988D0E9449003B
:101C5000DC01CB019C8B8B8B8B899C89988B8F872C
:101C60008F8598890197F1F7988B8F8780E00E9484
:101C7000BA0E80E10E94BA0E80E090E0A0E2B1E4EA
:101C80008B879C87AD87BE876B857C858D859E8580
:101C900020E030E04AE755E40E941F02DC01CB015E
:101CA0008F839887A987BA876F81788589859A8578
:101CB00020E030E040E85FE30E94790388232CF4C1
:101CC00081E090E09E838D833FC06F817885898518
:101CD0009A8520E03FEF4FE757E40E94190318165A
:101CE0004CF56B857C858D859E8520E030E040E25B
:101CF00051E40E941F02DC01CB01BC01CD010E9416
:101D00004900DC01CB019E838D830FC080E991E007
:101D10009C838B838B819C810197F1F79C838B83C0
:101D20008D819E8101979E838D838D819E810097F9
:101D300069F714C06F81788589859A850E9449006A
:101D4000DC01CB019E838D838D819E819A83898363
:101D500089819A810197F1F79A83898381E0809341
:101D6000D000E8960FB6F894DEBF0FBECDBFCF917E
:101D7000DF910895DF93CF93CDB7DEB7AB970FB662
:101D8000F894DEBF0FBECDBF8BA78DE160E00E944F
:101D90007B098EE160E00E947B098CE161E00E949A
:101DA0007B098BA582958F70982F917088E1692FA0
:101DB0000E947B098BA5829586958770982F9170DC
:101DC00089E1692F0E947B098BA58295869586956E
:101DD0008370982F91708AE1692F0E947B098BA5EF
:101DE000982F991F9927991F8BE1692F0E947B09D2
:101DF0008CE160E00E947B0980E090E0A0E2B1E429
:101E00008FA398A7A9A7BAA76FA178A589A59AA516
:101E100020E030E04AE755E40E941F02DC01CB01DC
:101E20008BA39CA3ADA3BEA36BA17CA18DA19EA1FE
:101E300020E030E040E85FE30E94790388232CF43F
:101E400081E090E09AA389A33FC06BA17CA18DA102
:101E50009EA120E03FEF4FE757E40E9419031816B8
:101E60004CF56FA178A589A59AA520E030E040E265
:101E700051E40E941F02DC01CB01BC01CD010E9494
:101E80004900DC01CB019AA389A30FC080E991E04E
:101E900098A38F8F8F8D98A10197F1F798A38F8FBB
:101EA00089A19AA101979AA389A389A19AA10097D0
:101EB00069F714C06BA17CA18DA19EA10E9449006D
:101EC000DC01CB019AA389A389A19AA19E8F8D8F52
:101ED0008D8D9E8D0197F1F79E8F8D8F8CE161E046
:101EE0000E947B098091D000813009F098C08BA5B9
:101EF000982F917088E1692F0E947B098BA58695A8
:101F0000982F917089E1692F0E947B098BA5869596
:101F10008695982F91708AE1692F0E947B098BA585
:101F2000869586958695982F91708BE1692F0E94F2
:101F30007B098CE160E00E947B0980E090E0A0E2F8
:101F4000B1E4898F9A8FAB8FBC8F698D7A8D8B8D21
:101F50009C8D20E030E04AE755E40E941F02DC013E
:101F6000CB018D8B9E8BAF8BB88F6D897E898F89CE
:101F7000988D20E030E040E85FE30E9479038823F9
:101F80002CF481E090E09C8B8B8B3FC06D897E8927
:101F90008F89988D20E03FEF4FE757E40E941903A7
:101FA00018164CF5698D7A8D8B8D9C8D20E030E074
:101FB00040E251E40E941F02DC01CB01BC01CD01D3
:101FC0000E944900DC01CB019C8B8B8B0FC080E908
:101FD00091E09A8B898B89899A890197F1F79A8B7D
:101FE000898B8B899C8901979C8B8B8B8B899C8996
:101FF000009769F714C06D897E898F89988D0E943A
:102000004900DC01CB019C8B8B8B8B899C89988B45
:102010008F878F8598890197F1F7988B8F8780E05C
:1020200090E0A0E2B1E48B879C87AD87BE876B858B
:102030007C858D859E8520E030E04AE755E40E944E
:102040001F02DC01CB018F839887A987BA876F8134
:10205000788589859A8520E030E040E85FE30E943A
:10206000790388232CF481E090E09E838D833FC028
:102070006F81788589859A8520E03FEF4FE757E4A7
:102080000E94190318164CF56B857C858D859E85FD
:1020900020E030E040E251E40E941F02DC01CB016D
:1020A000BC01CD010E944900DC01CB019E838D83E0
:1020B0000FC080E991E09C838B838B819C81019789
:1020C000F1F79C838B838D819E8101979E838D8305
:1020D0008D819E81009769F714C06F81788589850D
:1020E0009A850E944900DC01CB019E838D838D81FE
:1020F0009E819A83898389819A810197F1F79A83D6
:1021000089838CE161E00E947B09AB960FB6F8945D
:10211000DEBF0FBECDBFCF91DF910895DF93CF9388
:1021200000D0CDB7DEB79A8389830BC0E981FA81ED
:10213000208189819A8101969A838983822F0E94C6
:10214000F210E981FA818081882381F70F900F9046
:10215000CF91DF910895DF93CF9300D000D0CDB71A
:10216000DEB79A8389836B834C838B81823058F4EA
:102170008C81803140F48B816C810E94CA108981EE
:102180009A810E948E100F900F900F900F90CF9118
:10219000DF910895DF93CF9300D0CDB7DEB7898369
:1021A0006A8389818230C8F48A818031B0F4898160
:1021B000882F90E0002496958795079496958795AB
:1021C0000794982F802D982F8A81890F806880939B
:1021D000D1008091D1000E94BA0E0F900F90CF9144
:1021E000DF910895DF93CF93CDB7DEB7AB970FB6EE
:1021F000F894DEBF0FBECDBF8BA78DE160E00E94DB
:102200007B098EE161E00E947B098CE161E00E9424
:102210007B098BA582958F70982F917088E1692F2B
:102220000E947B098BA5829586958770982F917067
:1022300089E1692F0E947B098BA5829586958695F9
:102240008370982F91708AE1692F0E947B098BA57A
:10225000982F991F9927991F8BE1692F0E947B095D
:102260008CE160E00E947B0980E090E0A0E2B1E4B4
:102270008FA398A7A9A7BAA76FA178A589A59AA5A2
:1022800020E030E04AE755E40E941F02DC01CB0168
:102290008BA39CA3ADA3BEA36BA17CA18DA19EA18A
:1022A00020E030E040E85FE30E94790388232CF4CB
:1022B00081E090E09AA389A33FC06BA17CA18DA18E
:1022C0009EA120E03FEF4FE757E40E941903181644
:1022D0004CF56FA178A589A59AA520E030E040E2F1
:1022E00051E40E941F02DC01CB01BC01CD010E9420
:1022F0004900DC01CB019AA389A30FC080E991E0DA
:1023000098A38F8F8F8D98A10197F1F798A38F8F46
:1023100089A19AA101979AA389A389A19AA100975B
:1023200069F714C06BA17CA18DA19EA10E944900F8
:10233000DC01CB019AA389A389A19AA19E8F8D8FDD
:102340008D8D9E8D0197F1F79E8F8D8F8CE161E0D1
:102350000E947B098BA5982F917088E1692F0E94BC
:102360007B098BA58695982F917089E1692F0E9432
:102370007B098BA586958695982F91708AE1692FA8
:102380000E947B098BA5869586958695982F9170DE
:102390008BE1692F0E947B098CE160E00E947B0940
:1023A00080E090E0A0E2B1E4898F9A8FAB8FBC8F80
:1023B000698D7A8D8B8D9C8D20E030E04AE755E465
:1023C0000E941F02DC01CB018D8B9E8BAF8BB88FDF
:1023D0006D897E898F89988D20E030E040E85FE349
:1023E0000E94790388232CF481E090E09C8B8B8BF6
:1023F0003FC06D897E898F89988D20E03FEF4FE740
:1024000057E40E94190318164CF5698D7A8D8B8D4F
:102410009C8D20E030E040E251E40E941F02DC018C
:10242000CB01BC01CD010E944900DC01CB019C8B9A
:102430008B8B0FC080E991E09A8B898B89899A896F
:102440000197F1F79A8B898B8B899C8901979C8BDB
:102450008B8B8B899C89009769F714C06D897E8965
:102460008F89988D0E944900DC01CB019C8B8B8B5E
:102470008B899C89988B8F878F8598890197F1F735
:10248000988B8F878CE161E00E947B0980E090E06F
:10249000A0E2B1E48B879C87AD87BE876B857C8586
:1024A0008D859E8520E030E04AE755E40E941F02BA
:1024B000DC01CB018F839887A987BA876F817885E4
:1024C00089859A8520E030E040E85FE30E94790347
:1024D00088232CF481E090E09E838D833FC06F8140
:1024E000788589859A8520E03FEF4FE757E40E9481
:1024F000190318164CF56B857C858D859E8520E02B
:1025000030E040E251E40E941F02DC01CB01BC013B
:10251000CD010E944900DC01CB019E838D830FC059
:1025200080E991E09C838B838B819C810197F1F7FB
:102530009C838B838D819E8101979E838D838D816A
:102540009E81009769F714C06F81788589859A8587
:102550000E944900DC01CB019E838D838D819E8189
:102560009A83898389819A810197F1F79A83898374
:10257000AB960FB6F894DEBF0FBECDBFCF91DF9103
:102580000895DF93CF9300D000D0CDB7DEB79C8302
:102590008B831A8219828B819C810E94A6139A8355
:1025A00089838B819C810E946D139C838B8389819D
:1025B0009A8101979A8389838B819C812AE030E0FC
:1025C000B9010E942317805D0E94F2108B819C81CB
:1025D0002AE030E0B9010E942317CB019C838B8352
:1025E0008B819C81009719F708C080E30E94F2104C
:1025F00089819A8101979A83898389819A81009739
:10260000A1F70F900F900F900F90CF91DF91089549
:10261000DF93CF93CDB7DEB780E00E94BA0E81E0A2
:102620000E94BA0ECF91DF910895DF93CF9300D02F
:1026300000D00F92CDB7DEB79C838B836D838D81E5
:10264000883008F58D81882F90E0880F991F880FBA
:10265000991F880F991F80648A838A810E94BA0E0D
:1026600019820EC08981282F30E08B819C81FC016A
:10267000E20FF31F80810E94F21089818F5F8983AE
:102680008981883078F382E00E94BA0E0F900F9013
:102690000F900F900F90CF91DF910895DF93CF931C
:1026A00000D00F92CDB7DEB789836A834B838A81CE
:1026B000823068F48B81803150F48981883038F41D
:1026C0008A816B810E94CA1089810E94F2100F904A
:1026D0000F900F90CF91DF910895DF93CF9300D0AB
:1026E00000D0CDB7DEB79C838B831A821982898193
:1026F0009A819C01220F331FC901880F991F880FEF
:10270000991FF901E80FF91F8B819C812AE030E0C5
:10271000B9010E9423178E0F9F1F9A8389838B8193
:102720009C812AE030E0B9010E942317CB019C83F1
:102730008B838B819C810097D1F689819A810F9040
:102740000F900F900F90CF91DF910895DF93CF936B
:1027500000D00F92CDB7DEB79B838A83198289811F
:102760008F5F89838A819B812AE030E0B9010E94D2
:102770002317CB019B838A838A819B81009779F7FA
:102780008981882F90E00F900F900F90CF91DF916B
:102790000895DF93CF93CDB7DEB7CF91DF91089542
:1027A000DF93CF9300D00F92CDB7DEB789838981B5
:1027B000282F30E03B832A838A819B8184309105D6
:1027C00009F44FC02A813B8125303105D4F48A8138
:1027D0009B8181309105C9F12A813B8122303105ED
:1027E0002CF48A819B81009761F152C02A813B8140
:1027F0002230310571F18A819B818330910569F125
:1028000047C02A813B8127303105B9F18A819B81FC
:10281000883091055CF42A813B812530310529F10E
:102820008A819B818630910521F132C02A813B81CA
:102830002830310531F18A819B818930910529F158
:1028400027C08FE30E944E1423C086E00E944E14DE
:102850001FC08BE50E944E141BC08FE40E944E14D3
:1028600017C086E60E944E1413C08DE60E944E14D7
:102870000FC08CE70E944E140BC087E00E944E14DC
:1028800007C08FE70E944E1403C08FE60E944E14CB
:102890000F900F900F90CF91DF910895DF93CF931A
:1028A0000F92CDB7DEB789838981982F917088E127
:1028B000692F0E947B0989818695982F917089E103
:1028C000692F0E947B09898186958695982F917042
:1028D0008AE1692F0E947B09898186958695869574
:1028E000982F91708BE1692F0E947B0989818295D5
:1028F0008F70982F91708CE1692F0E947B098981DC
:10290000829586958770982F91708DE1692F0E942E
:102910007B0989818295869586958370982F917021
:102920008EE1692F0E947B090F90CF91DF9108956E
:10293000DF93CF9300D00F92CDB7DEB78983898123
:10294000282F30E03B832A838A819B81009731F0D6
:102950002A813B812130310531F009C08FE160E0EF
:102960000E947B0904C080E160E00E947B090F9017
:102970000F900F90CF91DF910895DF93CF9300D008
:102980000F92CDB7DEB789838981282F30E03B8352
:102990002A838A819B81009731F02A813B812130F3
:1029A000310531F009C08FE161E00E947B0904C06C
:1029B00080E161E00E947B090F900F900F90CF9112
:1029C000DF910895DF93CF93CDB7DEB70E947406F1
:1029D00087E00E94350680E00E940A0680E00E949F
:1029E000A30580E060E00E94CE05CF91DF910895BD
:1029F000DF93CF9300D000D0CDB7DEB719821A8213
:102A00001B821C820E948206CC01A0E0B0E0898378
:102A10009A83AB83BC8389819A81AB81BC8128E88E
:102A200033E140E050E0BC01CD010E94F816DC012A
:102A3000CB0120E038E240E050E0BC01CD010E9433
:102A40003717DA01C90189839A83AB83BC8380E09D
:102A500060E00E94CE0589819A81AB81BC81BC0176
:102A6000CD010F900F900F900F90CF91DF910895AF
:102A7000DF93CF930F92CDB7DEB78983A3E5B0E0A4
:102A8000E3E5F0E08081887F8C93A3E5B0E0E3E5A7
:102A9000F0E090818981892B8C930F90CF91DF9109
:102AA0000895DF93CF9300D00F92CDB7DEB789831F
:102AB0008981282F30E03B832A838A819B81813062
:102AC000910521F12A813B81223031052CF48A8144
:102AD0009B81009761F046C02A813B8122303105FD
:102AE00021F18A819B818330910571F13BC0A3E57F
:102AF000B0E0E3E5F0E08081877F8C93A3E5B0E070
:102B0000E3E5F0E080818F7B8C932CC0A3E5B0E0FF
:102B1000E3E5F0E0808180648C93A3E5B0E0E3E539
:102B2000F0E08081877F8C931DC0A3E5B0E0E3E5F2
:102B3000F0E0808188608C93A3E5B0E0E3E5F0E00D
:102B400080818F7B8C930EC0A3E5B0E0E3E5F0E0DD
:102B5000808188608C93A3E5B0E0E3E5F0E08081BC
:102B600080648C930F900F900F90CF91DF91089518
:102B7000DF93CF93CDB7DEB780E060E00E943B16D5
:102B800081E060E00E943B16CF91DF910895DF93D2
:102B9000CF9300D00F92CDB7DEB789838981282FDC
:102BA00030E03B832A838A819B8181309105E9F063
:102BB0002A813B81223031052CF48A819B81009748
:102BC00061F02AC02A813B8122303105B1F08A812F
:102BD0009B8183309105C9F01FC0A9E5B0E0E9E50C
:102BE000F0E0808181608C9317C0A9E5B0E0E9E551
:102BF000F0E080818E7F8C930FC0A9E5B0E0E9E51D
:102C0000F0E0808182608C9307C0A9E5B0E0E9E53F
:102C1000F0E080818D7F8C930F900F900F90CF917B
:102C2000DF910895DF93CF930F92CDB7DEB78983FD
:102C3000A3E5B0E0E3E5F0E080818F7E8C93A3E52F
:102C4000B0E0E3E5F0E080818F7D8C93A3E5B0E018
:102C5000E3E5F0E08081282F8981882F90E082953C
:102C60009295907F9827807F9827822B8C930F9046
:102C7000CF91DF910895DF93CF9300D000D0CDB7EF
:102C8000DEB789836A838981282F30E03C832B83D8
:102C90008B819C81009731F02B813C812130310563
:102CA00031F009C0E2E5F0E08A81808304C0ECE500
:102CB000F0E08A8180830F900F900F900F90CF915A
:102CC000DF910895DF93CF9300D000D0CDB7DEB76A
:102CD0008A8319828A81282F30E03C832B838B8161
:102CE0009C81009731F02B813C812130310531F0FE
:102CF00009C0E2E5F0E08081898304C0ECE5F0E002
:102D00008081898389810F900F900F900F90CF91D0
:102D1000DF910895DF93CF93CDB7DEB780E00E94B7
:102D2000F00991E0982780E0692F0E947B09CF91FC
:102D3000DF910895DF93CF93CDB7DEB78091880000
:102D400081508093880080918800882371F488ECFA
:102D5000809388008091D2008F5F8093D200809111
:102D6000D2008C3310F01092D20080918900882319
:102D700091F081E00E94BD1480E00E94981480913F
:102D8000D2009AE0692F0E941717892F0E94D01352
:102D90001092890011C080E00E94BD1481E00E9461
:102DA00098148091D2009AE0692F0E9417170E9410
:102DB000D01381E080938900CF91DF910895DF9354
:102DC000CF93CDB7DEB70E94C6080E94FE068AE800
:102DD00096E160E041E00E9428078AE996E160E020
:102DE00041E00E9428070E948B080E949807FDCFAF
:102DF000629FD001739FF001829FE00DF11D649FDF
:102E0000E00DF11D929FF00D839FF00D749FF00D6A
:102E1000659FF00D9927729FB00DE11DF91F639F0B
:102E2000B00DE11DF91FBD01CF0111240895991BBB
:102E300079E004C0991F961708F0961B881F7A95B1
:102E4000C9F780950895AA1BBB1B51E107C0AA1FB3
:102E5000BB1FA617B70710F0A61BB70B881F991F3B
:102E60005A95A9F780959095BC01CD01089597FBDF
:102E7000092E05260ED057FD04D014D00AD0001C10
:102E800038F450954095309521953F4F4F4F5F4F07
:102E90000895F6F790958095709561957F4F8F4FC7
:102EA0009F4F0895A1E21A2EAA1BBB1BFD010DC066
:102EB000AA1FBB1FEE1FFF1FA217B307E407F507EA
:102EC00020F0A21BB30BE40BF50B661F771F881FC6
:102ED000991F1A9469F760957095809590959B015C
:102EE000AC01BD01CF0108952F923F924F925F92A6
:102EF0006F927F928F929F92AF92BF92CF92DF920A
:102F0000EF92FF920F931F93CF93DF93CDB7DEB76E
:102F1000CA1BDB0B0FB6F894DEBF0FBECDBF099402
:102F20002A88398848885F846E847D848C849B8459
:102F3000AA84B984C884DF80EE80FD800C811B8167
:102F4000AA81B981CE0FD11D0FB6F894DEBF0FBE96
:0A2F5000CDBFED010895F894FFCF06
:102F5A00000000000000000001010101010101015F
:102F6A000101010101010101010101010101010147
:102F7A000101010101010101C8013A0037003400D1
:102F8A0031003B003800350032003900360033008A
:102F9A0030003B003800350032003900360033007B
:102FAA00300007080923040506230102037363009E
:022FBA0072653E
:00000001FF
